S020000048656C6C6F5F576F726C645F54464C4D5F454B5241364D342E73726563DE
S315000000006026002065590300D55703006159030097
S3150000001061590300615903006159030061590300E6
S31500000020000000000000000000000000615903000D
S315000000306159030000000000615903006159030083
S31500000040A95303000D5303003954030081540300E0
S31500000050000000000000000000000000000000009A
S31500000060000000000000000000000000000000008A
S31500000070000000000000000000000000000000007A
S31500000080000000000000000000000000000000006A
S31500000090000000000000000000000000000000005A
S315000000A0000000000000000000000000000000004A
S315000000B0000000000000000000000000000000003A
S315000000C0000000000000000000000000000000002A
S315000000D0000000000000000000000000000000001A
S315000000E0000000000000000000000000000000000A
S315000000F000000000000000000000000000000000FA
S3150000010000000000000000000000000000000000E9
S3150000011000000000000000000000000000000000D9
S3150000012000000000000000000000000000000000C9
S3150000013000000000000000000000000000000000B9
S3150000014000000000000000000000000000000000A9
S315000001500000000000000000000000000000000099
S315000001600000000000000000000000000000000089
S315000001700000000000000000000000000000000079
S315000001800000000000000000000000000000000069
S315000001900000000000000000000000000000000059
S315000001A00000000000000000000000000000000049
S315000001B00000000000000000000000000000000039
S315000001C0FFFFFFFFFFFFFFFFFFFFFFFFFFFFFFFF39
S315000001D0FFFFFFFFFFFFFFFFFFFFFFFFFFFFFFFF29
S315000001E0FFFFFFFFFFFFFFFFFFFFFFFFFFFFFFFF19
S315000001F0FFFFFFFFFFFFFFFFFFFFFFFFFFFFFFFF09
S315000002000348044B834202D0034B03B1184770479F
S31500000210900000209000002000000000064B0749D7
S31500000220C91A891048BF0131491003D0044B0BB1DC
S3150000023001481847704700BF90000020900000203A
S315000002400000000010B5064C237843B9FFF7D8FF2D
S31500000250044B13B10448AFF300800123237010BD93
S31500000260B000002000000000C83D040008B5054BA2
S315000002701BB105490548AFF30080BDE80840FFF70C
S31500000280CDBF00BF00000000B4000020C83D040040
S3150000029008B5A0B102680346821A11880A2909D94D
S315000002A0508900B1185C92881AB19B5C984238BF9D
S315000002B0184608BD04294FF00000F4D808BD3AF0EE
S315000002C031F800BF03464FF0010C002010B40D4C6E
S315000002D0D960A4FB0242520901EB0211196101EB3C
S315000002E082015A60596101EB820102EB420201EB85
S315000002F082025DF8044B986083F828C099615A62BF
S31500000300704700BFCDCCCCCC704700BF806870472B
S3150000031010B5044635F006FC204610BD844670B57F
S31500000320D0E90104844214DA4FF0010E4FF0FF3594
S31500000330DCF80C1026018A5101EB04129360049B31
S315000003407444D36055600020CCF808408CF828E04F
S3150000035070BD02460846024933F00EF9012070BD11
S315000003602CB103002DE9F04F0468DFF860A0D4F843
S31500000370089083B0D145D0E9024808EB041716D19E
S3150000038016464268944219DA1D4601230C9A4FEA32
S31500000390041B1C4448F80B60BD60FA60846080F85A
S315000003A0283000200D9B7B6003B0BDE8F08F0C9CCD
S315000003B00094C8470028F4D00120F5E70846024912
S315000003C033F0DAF80120EFE72CB103001D0300003B
S315000003D0012A1CDD30B586460D46A0F1040C0CEB57
S315000003E0820C2A4673460024196853F8040F81428A
S315000003F006DA012443E90101D2E90001C2E900104D
S31500000400634502F10402EFD1002CEAD130BD7047FA
S31500000410014B0360704700BF24B20300844670B4EA
S31500000420E9B18968481C1CD0DCF8184001EB410191
S31500000430DCF80C5004EB8100416805EB01118E6875
S31500000440B34204DBC9688A4201DC70BC704780682D
S31500000450411C00EB400004D004EB8000ECE7016A8D
S31500000460E2E7002070BC704790F82830002B00F0BF
S31500000470C1802DE9F04FD0F808E00546BEF1000F27
S3150000048085B02FD0D0E904074FF0000385F8283057
S3150000049040F3B780D5F80C901C4619468446D5F82B
S315000004A024A009F104080DE04CF8210047F821408A
S315000004B058F8232001313260AE680134A64203F1B8
S315000004C0040312DD58F8232059F82300B2F1FF3F48
S315000004D00AEB0306E8D10EF1FF3E4CF82E0047F872
S315000004E02E40E8E705B0BDE8F08F0CEB8100A6EBE7
S315000004F0010E07EB81017246FFF76AFF01214FF0FB
S31500000500FF330022AE69E9612A62D5F80C90B36028
S315000005103B6809EB03114968736001316BD0D5F86C
S3150000052024E05EF82310AB683160012BDADD4FF072
S31500000530010AB046BC4608E090462B6A93602962E1
S31500000540AB680AF1010A5345CCDD5CF8047F09EB80
S3150000055007133A0159F802B0D3E90142611CDB687E
S3150000056021D04EF82740E96901EB410246F82240C6
S315000005704B1C06EB82025760EB61D8F80030A342B1
S31500000580DADC474604E056F82000A0422FDC5F463E
S31500000590BB6803EB4300B3F1FF3F06EB800BF2D1E0
S315000005A0B9609360CCE70021CDE901680C46B846F6
S315000005B07746CDF80CC028460E46FFF72FFF0146BA
S315000005C046B1D6E90060000159F800003044844283
S315000005D0B8BF044619B10868001B8345EBDCBE466C
S315000005E0019E4746DDF80CC0DDF80880B9E7936048
S315000005F0B960A5E77047D5F824E011464EF82320E8
S3150000060091E7394677E700BF70B50546FFF72CFF3F
S31500000610A868C8B12B6AAC6903EB430314EB8303E8
S3150000062013D00020EE6802E014EB83030CD0D3E96C
S3150000063000521201B1589A682944884238BF0846C8
S3150000064002EB42030132EFD170BD184670BD00BF08
S315000006502DE9F04305469BB0FFF706FFD5F8088065
S31500000660B8F1000F40F3BF800024624F1DE0232C39
S3150000067021DD3D2C04F11D01CCBF2A21C9B2EB6856
S31500000680260103EB0412D0689B59029090686A6AAF
S31500000690019052F8246038462246009631F01CF943
S315000006A0D5F808800134A04509DD092CDFDC04F10A
S315000006B03001C9B2E3E704F15701C9B2DFE7B8F187
S315000006C0000F40F3938000275026686AEB680438D1
S315000006D000EB880C1A6850F8044FD96822449642F9
S315000006E0B8BF16468F42B8BF0F46604503F11003E8
S315000006F0F0D1002450222E2105A83AF0D2F8B8F104
S31500000700000FD8BF4FF0000C4EDD00218E46D5F805
S315000007100CC0DCF80830A34239DCDCF80C30A3420C
S3150000072035DB6B6A53F821305A1C30D0DCF80000F8
S3150000073003EB8309034403EB83031A014FEA091908
S3150000074099FBF6F392FBF6F2934286441FDA05A86C
S31500000750013B01F1300903440DF1130002444FFA45
S3150000076089F903E021209342187010D013F9010F84
S315000007702E28F7D109292DDD23292DDD3D2901F16B
S315000007801D00CCBF2A2040B293421870EED1013131
S3150000079041450CF1100CBCD10EF2FF33002BB8BF53
S315000007A00EF2FE734FEAA32C4FF0000E124B1349C4
S315000007B02246092CC8BF1946114805ABCDF800C022
S315000007C001348DF864E031F087F8A74208DBD5F8EC
S315000007D008808FE74846C6E701F1570040B2C2E7F6
S315000007E01BB0BDE8F0830027502682E7502600277D
S315000007F07FE700BF50B10300342704004CB103006B
S315000008008CB10300F8B5144605461E460F46FFF7A1
S315000008102BFE002CAB6807DBA34205DD6B6A0020CC
S3150000082053F824303360F8BD22463846024932F088
S31500000830A3FE0120F8BD00BF9CB103000120704754
S3150000084000207047836B0BB11C21184710B539F097
S3150000085069FD00BF836B0BB10221184710B539F053
S3150000086061FD00BFF0B50F698FB0002F42D0224B5B
S315000008700D461A68064613F0D5FE204B0446294657
S315000008801A68304613F0E8FE237A0546012B0CD091
S31500000890092B1DD01846746934F0D8F91849024658
S315000008A03046A04701200FB0F0BD214602A813F044
S315000008B0EDFE294608A8246813F0E8FED5B12146C6
S315000008C02B6808AA02A800F047F900200FB0F0BD77
S315000008D0214602A813F0DAFE294608A813F0D6FE30
S315000008E023683DB12C68384608AA02A9009400F096
S315000008F085F8EAE739F016FDC0B30300BCB3030080
S3150000090048B203002DE9F0410F698EB0002F4CD09C
S31500000910274B0D461A68064613F084FE254B0446FF
S3150000092029461A68304613F097FE237A0546012BAE
S315000009300DD0092B1FD01846746934F087F91E496B
S3150000094002463046A04701200EB0BDE8F0812146A0
S3150000095002A813F09BFE294608A8246813F096FE09
S315000009601DB321462B6808AA02A800F02DF9002025
S315000009700EB0BDE8F081214602A897F9016097F90B
S31500000980007013F083FED4F8008008AC2946204698
S3150000099013F07CFE4DB12B683946CDE90043304655
S315000009A0434602AA00F058F9E1E739F0BBFC00BF64
S315000009B0C0B30300BCB3030048B2030010B504463D
S315000009C0034B044A044913F005FE204610BD00BF40
S315000009D065080000E90C00004508000010B5044653
S315000009E0034B044A044913F0F5FD204610BD00BF31
S315000009F005090000D50D0000550800002DE9F84F47
S31500000A00D1F800C01468A44540F09B80BCF1000FEB
S31500000A10D8BF012419DD0D460E4600249E4652F825
S31500000A20043F56F8047FBB4240F08B800134A44556
S31500000A30F5D17346012401EB8C0155F8042FA94228
S31500000A4002FB04F4F9D1002C4FDD4FF001080A9A9D
S31500000A5003F1FF3E551E8669F446D0E903711EF97F
S31500000A60012F002ED0F814A0A2EB07023FDD26EAE4
S31500000A70E676B24092454FEAEA7954D0002602FB68
S31500000A8009F94FEAE27B0AFB0B99A2FB0A2A19EB4A
S31500000A900A0938D412F1804249F10009D20F42EA1C
S31500000AA049021F2E46DC08FA06F909F1FF394FEA1A
S31500000AB0690B42FA06F602EA090A0BEBD272924574
S31500000AC0D4BFB14606F10109D0E9016249448E421C
S31500000AD0B8BF0E469642A8BF16460CF1020CACEB08
S31500000AE0030C644505F8016FB5DCBDE8F88F524587
S31500000AF0C6F100064FEAEA79C1D1B2F1004FBED184
S31500000B006FF00042CDE7104FD21969F10009B9F133
S31500000B10000F04DA6FF00047D21949F10009D20F2D
S31500000B2042EA4902BDE7BAF1004FA7D16FF0004291
S31500000B300026B8E740F26711044B054A054834F031
S31500000B4015FE39F0EFFB00BF010000C074B20300D0
S31500000B5084B20300E0B20300F8B507681468A74240
S31500000B602ED1002FD8BF012218DD844604464FF04F
S31500000B70000E52F8046F54F8045FAE4220D10EF115
S31500000B80010E7745F5D1012200EB87005CF8044F92
S31500000B90844504FB02F2F9D1002A10DD00209FED06
S31500000BA0097AF1EC017AF5EEC07AF1EE10FA48BF57
S31500000BB0F0EE477A01309042E3EC017AF1DBF8BDC2
S31500000BC039F0B0FB00000000F8B507681468A742CA
S31500000BD03DD1002FD8BF012218DD844604464FF0D0
S31500000BE0000E52F8046F54F8045FAE422FD10EF196
S31500000BF0010E7745F5D1012200EB87005CF8044F22
S31500000C00604504FB02F2F9D1002A1FDD0020B1EE97
S31500000C10087ADFED106A0BE0F5EEC07AF1EE10FA15
S31500000C2001D5F0EE667A01308242E3EC017A0DDD01
S31500000C30F1EC017AF4EEC77AF1EE10FAECDDF1EEA2
S31500000C40087A01308242E3EC017AF1DCF8BD39F032
S31500000C5069FB00BF000000002DE9F041069CD2F8B8
S31500000C6000802568A8453CD1B8F1000FD8BF4FF0E9
S31500000C70010E1BDDA646154614464FF0000C5EF825
S31500000C80047F55F8046FB7422BD10CF1010CE045F7
S31500000C90F5D14FF0010E02EB880254F8045F94423E
S31500000CA005FB0EFEF9D1BEF1000F18DD079A5C1E9A
S31500000CB0551E08E08445B8BF84460232D21A7245F2
S31500000CC005F801CF0BDA224614F901CF8C45F1DD88
S31500000CD08C460232D21A724505F801CFF3DBBDE825
S31500000CE0F08139F01FFB00BF2DE9F043D1F81080E9
S31500000CF083B0B8F1000F61D0C468074623680022AC
S31500000D0020469B690E4698470546C0B12368314682
S31500000D1000222046DB6998470646E0B12B78092B6E
S31500000D201CD02368294620465B6A984723682046DC
S31500000D3031465B6A9847002003B0BDE8F0837B2309
S31500000D401F4938467C691F4A00911F49A047012068
S31500000D5003B0BDE8F0837E231C49F2E795ED037AE4
S31500000D60D0ED037AC7EE277A17EE900A37F0E6FD44
S31500000D7008F1180908F1140741EC100B49463846EA
S31500000D8032F082F896ED037ADFED116AC6EE877AC5
S31500000D90F8FE677A7F23FDEEE77A3269C8F80830F5
S31500000DA02B696FF07F01C8E9033217EE903A1344BE
S31500000DB08B42B8BF0B46C8F80430B2E739F0B2FA36
S31500000DC0A8B3030054B3030090B3030028B803008C
S31500000DD0000000002DE9F0430F6983B0002F3ED0DC
S31500000DE0C66805463368002230469B699847044624
S31500000DF048B30378092B1DD1B1EE087AD0ED037AFA
S31500000E00C7EE277A056917EE900A37F097FD41EC91
S31500000E10100B36F079F959EC108B284637F07CFD2B
S31500000E2042464B4637F02CFC38F07AF800F30700C0
S31500000E307D7038703368304621465B6A98470020DB
S31500000E4003B0BDE8F083074928466C6991230091F9
S31500000E50054A0649A047012003B0BDE8F08339F0F2
S31500000E6061FA00BFA8B3030054B3030090B30300B4
S31500000E70836B0BB13C21184710B539F053FA00BF0C
S31500000E802DE9F04FC46A066B89B0B442139D0294F3
S31500000E90039600F345810F68002F40F32C8101244F
S31500000EA001EB870751F8046F8F4206FB04F4F9D172
S31500000EB01F68D5F800C0002F40F32881012603EBF8
S31500000EC0870753F8041F9F4201FB06F6F9D1BCF1D0
S31500000ED0000F40F3208129460023012551F8047FA5
S31500000EE001339C4507FB05F5F8DCB44240F0188158
S31500000EF0AC4240F01581D0F80490914B9945C0F270
S31500000F000F8147F6FE734FF6FC71856801951D4407
S31500000F108D4200F20581994500F30281002C40F3D1
S31500000F20E7800127A2F1020C066A0CEB4403129A31
S31500000F30079373420493A2F1020E07FA03F3149A7D
S31500000F40013B951E05933B41D0F81880C469069372
S31500000F50009579E013F1804341F10001DB0F43EA8C
S31500000F604103002E00F3DE8016F11F0FC0F2E18070
S31500000F70059D416A05EA030B069D05EBD37A049DA0
S31500000F802B41D345C8BF01338A42D0F828A000F0D0
S31500000F90A18082FB0121002977DB12F1804241F119
S31500000FA00001D20F42EA4101BAF1000FCAF1000274
S31500000FB000F3B8801AF11F0FC0F2BB8007FA02FADD
S31500000FC00AF1FF3A4FEA6A0B41FA02F20AEA010A0B
S31500000FD00BEBD17BDA45C8BF01321A44D0E90431A4
S31500000FE09A427ED083FB022ABAF1000F5CDB12F133
S31500000FF080424AF1000AD20F42EA4A030029C1F1AF
S31500001000000200F38F801F31C0F2938007FA02F1CD
S3150000101001394FEA610A43FA02F219400AEBD37A20
S315000010205145C8BF0132C3681A44029B9A42B8BFF1
S315000010301A46039B9A42A8BF1A46009B23F8022F22
S315000010400093079B634553D03CF9023F3EF9022FBC
S3150000105001994B4403FA08F30A44A34202FA08F240
S3150000106032D083FB04310029BFF674AF354D5B19CE
S3150000107061F10001002904DA6FF000455B1941F1C6
S315000010800001DB0F43EA41036BE72E4D521961F174
S315000010900001002904DA6FF00045521941F1000100
S315000010A0D20F42EA41017FE7264BD2186AF1000AC5
S315000010B0BAF1000F04DA6FF00043D2184AF1000AC1
S315000010C0D20F42EA4A0399E7B4F1004FC9D16FF053
S315000010D0004346E7B2F1004F7FF45BAF6FF000418B
S315000010E062E7B2F1004F7FF47DAF6FF0004385E712
S315000010F009B0BDE8F08F1F680124002FD5F800C0A5
S315000011003FF7DCAEBCF1000F03DCF4E6BCF1000FE8
S3150000111003DD0126DFE60125E7E6012C3FF4EBAE11
S3150000112039F000F94FF4B371074B084A084834F018
S315000011301DFB40F26711074B044A054834F016FBC5
S315000011400280FFFF010000C0C4B3030084B20300A5
S31500001150E0B2030074B20300F8B553689569184409
S31500001160D4699368A8400B44844203FA05F3156AD0
S3150000117000F0A28080FB0404002C70DB10F180409C
S3150000118044F10004C10F41EA4401002DC5F1000EEF
S3150000119000F3A6801F35C0F2AA80012000FA0EF0E7
S315000011A0013841FA0EFC556A4FEA600E08400EEB14
S315000011B0D1718842C8BF0CF1010C9D42946A00F0BF
S315000011C0828083FB0535002D58DB13F1804345F102
S315000011D00005DB0F43EA4503002CC4F100057FDC64
S315000011E01F34C0F28480D2E904100124AC40013CD3
S315000011F043FA05FE651005EBD3751C40AC42D4BF1F
S3150000120073460EF101036344994263D081FB0313D5
S31500001210002B42DB11F1804143F10003C90F41EA83
S3150000122043010028C0F100045ADC1F305FDBD2E91D
S315000012300B650123A340013BD7685A1041FA04F01D
S315000012400B4002EBD1729342C8BF01303844B04222
S31500001250B8BF3046A842A8BF284640B2F8BD2749C5
S31500001260401864F10004002C04DA6FF000414018C5
S3150000127044F10004C00F40EA440186E71F495B18A9
S3150000128065F10005002D04DA6FF000415B1845F1A9
S315000012900005DB0F43EA45039EE7184C091963F185
S315000012A00003002B04DA6FF00044091943F1000330
S315000012B0C90F41EA4301B4E7B4F1004F7FF45AAFD6
S315000012C06FF0004161E7B3F1004F7FF47AAF6FF042
S315000012D0004381E7B1F1004F98D16FF00041A0E7DC
S315000012E04FF4B371064B074A074834F03FFA40F211
S315000012F06711064B034A044834F038FA010000C06F
S31500001300C4B3030084B20300E0B2030074B2030066
S315000013102DE9F047D0F800A0D1F800800423D0458D
S315000013204546B8BF55468CB0002D13700F4614467F
S31500001330A5EB0A06009540F31881002E0BDD00236D
S3150000134001216A4602E0AB4200F011810133B3424B
S3150000135042F8041FF7D10DF10409011D4FEA8A0274
S3150000136009EB860039F055FBB5EB0800069500F051
S31500001370D6800023012106AA02E0AB4200F0F780E6
S315000013800133984242F8041FF7D107AE4FEA8802AC
S31500001390391D06EB800039F03CFB009FDDF8188014
S315000013A0474500F0C8806B1EBB4280F2E0800CAA65
S315000013B002EB8302434552F82C1C80F2D8809C46EF
S315000013C006AAAE0002EB85020DEB850552F804096C
S315000013D0884200F0BF80012940F08F8006ADEC46C0
S315000013E0AA4602224FF001084FF00109227001229D
S315000013F00AEB0607C4E91489C4E91689DCF800106B
S315000014002266664406E0226E013B00FB02F25D1C8A
S3150000141022666ED08B4280F2AA80DAF8002056F857
S3150000142004E9934280F2A38057F804097045EAD094
S315000014309E1C0AEB86070CEB86060BE0934280F2B5
S315000014409680E56D57F8040D013B05FB00F0E0655D
S31500001450581C4ED08B4280F28A8056F8040D012823
S31500001460ECD003F1020E0AEB8E070CEB8E0E06E0B3
S31500001470A06D013B06FB00F05E1CA06539D08B42D7
S3150000148075DA93425EF8040D71DA57F8046D8642F8
S31500001490EED09E1C0CEB86070AEB86060AE08B4212
S315000014A065DA656D57F8040D013B05FB00F05D1C20
S315000014B060651ED093425ADA56F8040D0128EED024
S315000014C0981C0AEB80050CEB800C06E0206D013BB6
S315000014D006FB00F02065581C0BD08B4247DA93427E
S315000014E05CF8040D43DA55F8046D8642EED0042309
S315000014F0237001200CB0BDE8F0870128F9D1EA4637
S3150000150003220DF1180C6DE70DF10409011D4FEAD8
S315000015108A02484639F07DFAD045069527DB07AEA4
S315000015204FEA8802391D304639F073FA009FDDF81C
S31500001530188047450AD131464846BA0039F087F93E
S3150000154020B9012323700CB0BDE8F0876B1E7FF530
S315000015502BAF0CE0BCF1010C09D3BC4507DAC4453E
S3150000156055F8041DFFF632AF01E0002ECCDD38F051
S31500001570D9FE00BF10B50446034B044A044913F0D4
S3150000158029F8204610BD00BFC1230000FD2500003C
S31500001590710E00002DE9F0438DB0002A00F08A801C
S315000015A01D46002B00F08680042314460268009333
S315000015B09A427FDC9B1A0E460DD04FF0000C012795
S315000015C0EE4602E0BCF1040F74D00CF1010C634549
S315000015D04EF8047FF6D1011D01A8920000EB8300AE
S315000015E039F017FA0423326806939A4262DCD2F184
S315000015F004000ED04FF0000C01230DF1180E02E08E
S31500001600BCF1040F56D00CF1010C60454EF8043FB6
S31500001610F6D107AB311D920003EB800039F0F9F9E2
S3150000162004F1100C624601230321009E0DF1140EF5
S315000016308E423FDD5EF8040D013942F8040D4F1C61
S31500001640136100FB03F3F3D105F1100E724601237B
S315000016500321069F0DF12C08B9422BDA58F8040D28
S31500001660013942F8040D136100FB03F3481CF3D162
S315000016700021684689460DF11808B1421AD0B942D0
S3150000168050F8043F16D058F8042F9A4207D0012B81
S315000016900BD0012A0ED14EF8219045F821300131A8
S315000016A00429EAD10DB0BDE8F0834CF8219044F846
S315000016B02120F4E738F036FE2DE9F04F0F461646A6
S315000016C0B3B0194622AA2AAB044638463D9D0D966C
S315000016D0FFF760FF04232A681C939A4200F3EA800E
S315000016E0D2F104000BD0002301261CA902E0042B32
S315000016F000F0E0800133984241F8046FF7D11DAB4A
S315000017009200291D03EB800039F083F9DDF8709013
S3150000171094ED0D7AB9F1000FD4ED0E6A40F3CA804C
S31500001720DDE92A6B00221D9B1F9917931E9B209DA6
S31500001730119301FB03F3144605FB03F0319B259F30
S315000017404FEA830A299B0A914FEA830805FB01F3B6
S315000017501493229BD6460493239BB2460593249B5F
S315000017600693279B1393289B0C932C9B02932D9BEC
S3150000177003932F9B1293309B0B932E9B1893269BC0
S31500001780CDE915221993179BA34240F39080B9F136
S31500001790010F00F08F80DDE915614FF0000C134654
S315000017A0CDE91A02119A944571DAB9F1020F00F0E7
S315000017B081800020099310930A9BCDE90716984271
S315000017C0CDE90E6155DAB9F1030F73D03E9A089947
S315000017D0099B02EB81063C9A0799019602EB81016F
S315000017E00D9A02EB8302002332E0049EB44261DAD2
S315000017F0059EB4455EDA069EB0425BDABB4259DA14
S315000018005445D2ED007A55DADC4553DA029EB042F1
S3150000181050DA039EB3424DDA91ED006AB9F1040F36
S3150000182077EE867A46D1F4EE477AF1EE10FA48BFA3
S31500001830F0EE477AF4EE676AF1EE10FA48BFF0EE82
S31500001840667A019E0133E6EC017A714442440196C0
S315000018509D42CADC089B0B9A2B440893079B0130D8
S31500001860134407930C9A099B134409930A9B9842C5
S31500001870A9DBDDE90E61149A109B1644129A0CF14D
S31500001880010C1144139A1344119A94458DDBDDE93A
S315000018901A02159B189903441593169B01340B44A1
S315000018A01693199B1A44179BA3423FF770AF33B0A8
S315000018B0BDE8F08F38F036FDF0B52DED028B93EDD7
S315000018C00D8AD3ED0E8A1B78C3B0DDE94A458DED4E
S315000018D0358ACDED368A21464C9E1BB304A812F0FC
S315000018E0D5FE002C00F08E8029460AA8276812F043
S315000018F0CDFE002D00F0868010AC314620462D68C6
S3150000190012F0C4FE002E7DD0019433683A4602934D
S3150000191004A90AAB009528A8FFF7CEFE43B0BDEC9C
S31500001920028BF0BD16A812F0B1FE002C6AD0294633
S315000019301CA8246812F0AAFE002D63D0314622A806
S315000019402D6812F0A3FE002E5CD03068169E002E85
S315000019504ADD012316AA02EB860652F8041FB2429C
S3150000196001FB03F3F9D11C9E229F002E46DD4FF0AA
S31500001970010E1CAA02EB860652F8041F964201FBD2
S315000019800EFEF9D1002F3FDD4FF0010C002222A9F7
S3150000199051F8046F0132BA4206FB0CFCF8DB9E4597
S315000019A030D163452ED1002BB8DD2246014604EB2B
S315000019B08303B2EC017AF5EC017A77EE877AB4EE1E
S315000019C0678AF1EE10FA78FE277AF4EE678AF1EE6E
S315000019D010FA48BFF0EE687A9A42E1EC017AE8D153
S315000019E043B0BDEC028BF0BD1C9E0123002E229F4E
S315000019F0BDDC002FD9DD4FF0010EC5E7002FFADC64
S31500001A00012BD2D038F08EFC4FF0010CC7E700BF97
S31500001A102DE9F04F0F469146BBB019462AAA32ABC4
S31500001A2006463846459CCDF84C90FFF7B3FD042397
S31500001A30226824939A4200F3E281D2F104003746E9
S31500001A400BD00023012524A902E0042B00F0D78146
S31500001A500133984241F8045FF7D125AB03EB8000D0
S31500001A609200211D38F0D5FF249B002B039340F3F1
S31500001A70C681DDE926E8002108FB0EF3289ABB465D
S31500001A8002FB03F9399B02925B000D93319B4FF0E9
S31500001A90010C5B000C9308FB02F32A9A1C93089234
S31500001AA02B9A259B09922C9A1F460A922D9A0C4630
S31500001AB00B922F9A1B92309A1592329A0492339A6D
S31500001AC00592349A0692359A0792379A1A92389A5C
S31500001AD0CDF864E08E461492369ABE4521922E9A2F
S31500001AE0CDF8448022928846CDF88C9080F27D8194
S31500001AF0039B012B00F0838100260846CDE91F4198
S31500001B00199922468E424346CDE91D7880F25E81C0
S31500001B100399022900F0738100241F46CDE916308F
S31500001B204699119BA1F1020A9C4290468146189261
S31500001B30CDF848A080F23C81039B032B00F05F8127
S31500001B40129B002203EB4905449BCDE90E7803EB7B
S31500001B504800139BCDF8409003EB470101958EE0BA
S31500001B6013F1804348F10008DB0F43EA4803B9F15B
S31500001B70000FC9F1000800F3D48019F11F0FC0F25D
S31500001B8037810CFA08F909F1FF394FEA690A43FA75
S31500001B9008F809EA03090AEBD37AD145C8BF08F168
S31500001BA00108DBE90939BB4200F0E68087FB033711
S31500001BB0002FC0F2BD8013F1804347F10007DB0F11
S31500001BC043EA4703B9F1000FC9F1000700F3A98002
S31500001BD019F11F0FC0F20C810CFA07F909F1FF3950
S31500001BE04FEA690A43FA07F709EA03090AEBD37AC7
S31500001BF0D145C8BF01374744DBE90438BB4200F092
S31500001C00C28087FB0337002FC0F2A18013F1804307
S31500001C1047F10007DB0F43EA4703B8F1000FC8F1AD
S31500001C2000077EDC18F11F0FC0F2E2800CFA07F8FD
S31500001C3008F1FF384FEA680943FA07F708EA03088C
S31500001C4009EBD379C845C8BF0137DBF80C300D9DC9
S31500001C501F44DBF82C3028449F42B8BF1F46DBF8F0
S31500001C6030300C9D9F42A8BF1F46039B2944042B7E
S31500001C7040F0C580019B013223F8027F0193029B4D
S31500001C809A4280F28780089FDBF80430BE4580F2D6
S31500001C90B680099FBE4280F2B2800A9FBC4280F2A3
S31500001CA0AE800B9FBA4280F2AA80B1F90080DBF8C1
S31500001CB008909844049B9E4580F2A180059B9E4215
S31500001CC080F29D80069B9C4280F29980079B9A42F7
S31500001CD080F29580DBF81830B0F9007008FA03F846
S31500001CE04F449F40DBE9073943453FD088FB033823
S31500001CF0B8F1000FBFF634AF424D5B1968F100082A
S31500001D00B8F1000F04DA6FF000455B1948F10008DE
S31500001D10DB0FB9F1000F43EA4803C9F100087FF76A
S31500001D202CAF4FF4B371384B384A394833F01EFDA7
S31500001D30344D5B1967F10007002F04DA6FF0004598
S31500001D405B1947F10007DB0F43EA47033AE72D4DDE
S31500001D505B1967F10007002F04DA6FF000455B1985
S31500001D6047F10007DB0F43EA470356E7B8F1004F98
S31500001D70BCD16FF00043FAE6B7F1004F7FF416AF1F
S31500001D806FF000431EE7B3F1004F7FF43AAF6FF0F8
S31500001D90004342E7DDF84090DDE90E789944149B54
S31500001DA001349844159B1F44119B9C42FFF6C4AE18
S31500001DB0DDE916301C99189A08441A9901360A4426
S31500001DC01B990B4419998E42FFF6A2AEDDE91F411D
S31500001DD0DDE91D78239B0EF1010E1944219BBE45BA
S31500001DE01C44229B9844FFF683AE3BB0BDE8F08FBF
S31500001DF040F26711074B054A054833F0B7FC38F047
S31500001E0091FA00BF010000C0C4B3030084B203000E
S31500001E10E0B2030074B203001A462DE9F04F5B6A84
S31500001E20ADF5037D0B936E93936AD2F804B00693D7
S31500001E3069935369976905936F93D36AD2F808A09B
S31500001E4007936A93136BD2F81C80D2F820900C93F8
S31500001E506B93D3681269DDE98C6458A83146089300
S31500001E608E9DCDF8C0B17197CDF8C8A1CDF8B081DF
S31500001E70CDF8B4910992CDE9733212F007FC2146F0
S31500001E8060A812F003FC68AA60A958A8FFF740FAF8
S31500001E900246287A072800F01981092840F03B817C
S31500001EA03146002A40F0628128A812F0EFFB002E8E
S31500001EB000F07882336821462EA80A9312F0E6FBDA
S31500001EC0002C00F06F822368294634A80D9312F087
S31500001ED0DDFBDDE9083293422E6800F36382069B40
S31500001EE07F33FF2B00F25E82079B7F33FF2B00F2CE
S31500001EF059822899002940F34982012328AA02EB36
S31500001F00810152F8040F8A4200FB03F3F9D12E9C9B
S31500001F103498002C40F3368201212EAA02EB840469
S31500001F2052F8045F944205FB01F1F9D1002840F311
S31500001F3027820124002534AA52F804CF01358542B0
S31500001F400CFB04F4F8DB8B4240F02C82A34240F0F9
S31500001F502982002B40F3DA800A9ACAF10004501E47
S31500001F60C318129301230D9AC9F1000502F1FF3E31
S31500001F70721E0A92CBF100020F9203FA02F2013AA4
S31500001F801146109203FA04F2AB405E1E0E944B10FB
S31500001F90541E1193631014937310DFF820C40D952B
S31500001FA0139415936EE012F1804244F10004D20FAF
S31500001FB042EA4402BBF1000F00F3DB811BF11F0F65
S31500001FC0C0F2D081109C0F9904EA0205119C04EB23
S31500001FD0D2740A41A542C8BF01329F4200F0BB81BC
S31500001FE087FB0334002CC0F2A78113F1804344F130
S31500001FF00004DB0F43EA4403BAF1000F00F3B98192
S315000020001AF11F0FC0F2AE81139901EA0305149964
S3150000201001EBD3740E990B41A542C8BF013313449B
S31500002020984500F0828183FB0832002AC0F26E8157
S3150000203013F1804342F10002DB0F43EA4203B9F198
S31500002040000F00F3968119F11F0FC0F28B81159ACC
S315000020500D9902EBD37206EA03040B419442C8BF02
S3150000206001330C9A1344089A9342B8BF1346099A4F
S315000020709342A8BF13460A9A02F8013F129B0A929E
S31500002080834243D0069B10F9012F079D1A441EF97F
S31500002090013F0B9C2B44A240A340059C944200F0B8
S315000020A02E81059C82FB0424002CBFF67CAF12EB2C
S315000020B00C0264F10004002C04DA6FF0004152189F
S315000020C044F10004D20F42EA440273E7314672BB80
S315000020D046A812F0DBFA002E00F0648121464CA8D7
S315000020E0366812F0D3FA002C00F05C812946246889
S315000020F060A812F0CBFA60ABCDE900432B683246FC
S31500002100029346A94CAB68A8FEF7BAFE00200DF56F
S31500002110037DBDE8F08F32F099FD2A7A0146A24888
S315000021202FF0DAFB01200DF5037DBDE8F08F3AA80C
S3150000213012F0ACFA002E00F03581214640A8366830
S3150000214012F0A4FA002C00F02D812946246860A81C
S3150000215012F09CFA60ABCDE900432B68324602933D
S315000021603AA940AB68A8FFF753FCCFE716A812F0D0
S315000021708DFA002E00F01681336821461CA80793BD
S3150000218012F084FA002C00F00D812368294622A85B
S31500002190089312F07BFA2C6860AB58AA1CA916A803
S315000021A00594FFF7F7F90423229A52939A4200F313
S315000021B0F980981A0BD00023012452A902E0042BBF
S315000021C000F0F0800133984241F8044FF7D153AB49
S315000021D0920003EB800023A938F01BFCDDF848C110
S315000021E0BCF1000F40F3DE80539D002D8EDDBCF167
S315000021F0010F00F0D7804FF0000BDDF85081B8F1E9
S31500002200000F76DDBCF1020F00F0CC804FF0000A23
S3150000221008FB0BF40B95DDF85491B9F1000F61DD65
S31500002220BCF1030F00F0BE80002504FB09F6CDE9E2
S315000022300948CDF818C0DDF85881059B002408FB35
S31500002240063744E0589B5B4540F3AC80599B5345A9
S3150000225040F3A8805A9BAB4240F3A4805B9BA34209
S3150000226040F3A080079A5C9B03FB0B235D9A02FB5D
S315000022700A335E9A02FB05335F9A04FB02F2985614
S31500002280609B5B4540F38E80619B534540F38A809B
S31500002290629BAB4240F38680639BA34240F38280FD
S315000022A0089A649B03FB0B23659A02FB0A33669A22
S315000022B002FB0533679A04FB02F29956069B042B30
S315000022C070D168AAFEF748FF013407F8010B4445B0
S315000022D0B8DB01354D4506F10106ACDBDDE9094801
S315000022E0DDF818C00AF1010AC24504F1010492DBC7
S315000022F00B9D0BF1010BAB45FFF67FAF06E7B4F183
S31500002300004F7FF4CEAE6FF0004253E613EB0C03A2
S3150000231062F10002002A04DA6FF000415B1842F114
S315000023200002DB0F43EA420389E6B8F1004F7FF46F
S315000023307AAE6FF0004382E613EB0C0364F10004FF
S31500002340002C04DA6FF000415B1844F10004DB0F47
S3150000235043EA440350E6B7F1004F7FF441AE6FF015
S31500002360004349E640F26711104B114A114833F019
S31500002370FDF94FF4B371104B0D4A0E4833F0F6F9E0
S315000023800124E0E500280ADD0121D2E52E9C012387
S31500002390002C34983FF7C0AD0028F5DCDCE5012BB6
S315000023A03FF4DAAD37F0BEFFD4B3030074B20300D6
S315000023B084B20300E0B20300C4B30300010000C00E
S315000023C02DE9F047D1E904A984B0BAF1000F3FD056
S315000023D0204B0C461A68054612F024F91E4B21467E
S315000023E01A680746284612F01DF91C4B80462146FE
S315000023F028461A6812F030F90646007A01281AD0E3
S31500002400092801D007280BD153464A4621462846BB
S31500002410CDE901860097FFF7FFFC04B0BDE8F08721
S3150000242032F014FC327A01460D482FF055FA01209D
S3150000243004B0BDE8F087284653464A462146CDE912
S3150000244001860097FFF738FA002004B0BDE8F08750
S3150000245037F068FF54B4030050B403004CB40300D3
S31500002460D4B30300FFFFFFFF2DE9F04F2DED068BE0
S31500002470074683B00E46DDE91254194610469846C3
S31500002480914631F063F82B7880F00100092B20701B
S315000024900AD0072B7BD0012B00F08880002003B0E8
S315000024A0BDEC068BBDE8F08F9FED4D7B14228DEDC4
S315000024B0007BD9F810305B42A362D8F810305B423B
S315000024C0E3622B6999ED03AA98ED038AB4EEC8AAD4
S315000024D0F1EE10FA236354BF1AEE100A18EE100A32
S315000024E0626236F02BFA02460B4636F0C9F8804691
S315000024F0894618EE100A36F021FA42464B4636F067
S315000025009FFB41EC190BE86836F018FADDE9002369
S3150000251036F06CFA02460B464046494636F090FBCA
S3150000252041EC180B1AEE100A36F008FA42464B46F2
S3150000253036F086FB04F1040B04F1140A41EC100B8F
S315000025405946504630F0B8FCB0EE490AF0EE690A3A
S3150000255004F1080104F1180030F0AEFC04F120018A
S3150000256004F11C00B0EE480AF0EE680A30F0A4FC54
S315000025702A46384604F110033178129304F10C030D
S3150000258003B0BDEC068BBDE8F04F30F0E9BD9FED22
S31500002590167BD9F810300F225B42A362D8F81030B0
S315000025A08DED007B5B42E3622B698BE73378012B71
S315000025B011D0032B0AD0022B0BBF4FF07E536FF4C2
S315000025C000020B4A0B4B6263A36367E700220A4BC8
S315000025D06263A36362E70022064B6263A3635DE75F
S315000025E00000000000003041000000000000E04054
S315000025F0000080BFFFFF7F7F0000C0402DE9F04351
S315000026000B6983B0002B50D04B690D46002B4CD084
S31500002610C46806462368002220469B6998470746F9
S3150000262000283CD023680122294620469B6998470A
S315000026308046002836D02368002229462046DB69DA
S3150000264098478146F0B1CDF800902B69304601934A
S31500002650696943463A46FFF707FF054670B923689E
S31500002660394620465B6A98472368414620465B6A9E
S3150000267098472368494620465B6A9847284603B030
S31500002680BDE8F0835C230A49012530467469094A8E
S3150000269000910949A047284603B0BDE8F0835623B8
S315000026A00649F1E759230649EEE737F03BFE00BF3E
S315000026B028B80300F0B3030090B3030024B403006A
S315000026C038B403002DE9F04F2DED028B0B6804465C
S315000026D08BB0002B6AD0D3F800B0BBF1010F65DDDB
S315000026E04B688A46002B6AD0D3F80090B9F1010FE7
S315000026F048D1C56800222B6828469B69984706463C
S31500002700002873D02B68002251462846DB6998477B
S31500002710804600286DD000783378834207D051E098
S315000027202B68284639465B6A9847CB4564D02B68A8
S315000027304A46514628469B69984709F101090746CA
S31500002740002800F0CD803046394630F0FFFE0028E4
S3150000275000F0C98030783B78834240F0C780092B6F
S31500002760DED132693B699A4240F0E28096ED037A07
S31500002770D7ED037AB4EE677AF1EE10FAD0D049239A
S31500002780714915E045690126704B714ACDE9013959
S315000027900092204633236F4A6F490396A8470127C4
S315000027A038460BB0BDEC028BBDE8F08F32236B4987
S315000027B0656920460091674A6949A847EFE7994647
S315000027C04569E0E7676932F041FA0546307832F04C
S315000027D03DFA0646634B20460193634BCDE902560C
S315000027E000935C4A3E236149B847D8E738236049DD
S315000027F0DEE73B235F49DBE798F80000012800F09D
S315000028008980092840F097802821A36B20469847A5
S315000028108146236C20464FEA8B01CAF8109009F1D5
S315000028202402984707460028BAD114223369F06873
S315000028305B42C9F80830D8F81030C9F82020C9F82A
S315000028400C3036F07BF802460B46CDE9062335F010
S3150000285017FF02460B46D8F80C00CDE9042336F0E4
S315000028606DF80022444B36F0C1F802460B46DDE90E
S31500002870040136F0E5F9DDE9042341EC180BDDE946
S31500002880060136F0DDF909F1180B09F1100A41ECE1
S31500002890100B5946504630F00FFBB0EE480AF0EEEA
S315000028A0680A09F11C0109F1140030F005FB09F171
S315000028B004033946009320464B46424630F050FC0E
S315000028C0074600287FF46CAF2B68314628465B6AC2
S315000028D098472B68414628465B6A984700275FE77A
S315000028E04123264964E74223254961E7666932F0B8
S315000028F0ADF90546387832F0A9F90746214B20464E
S315000029000193184BCDE902570093124A4323174906
S31500002910B04744E72046236C4FEA8B0109AA984743
S31500002920074600287FF43CAF099BCAF81030CBE776
S31500002930472315493CE7656932F088F91349024691
S315000029402046A8472BE700BFACB5030048CF0300DD
S31500002950B4B4030058B4030098B4030088B4030069
S3150000296090B3030004B5030020B50300E8B40300E8
S31500002970C8B4030028B8030000003041A8B3030020
S3150000298030B503005CB5030068B50300E4B5030089
S315000029902DE9F04F87B00392D0E90B42944200F341
S315000029A01481476807F17F02FF2A00F20E810D6845
S315000029B00122002D40F3F98001EB850551F8044F03
S315000029C08D4204FB02F2F9D10492002A00F0EA805B
S315000029D08446109A043B02F1FF3E039ADCE90601A5
S315000029E003EB820907FA00F2914205934FF00005C6
S315000029F0CA467646DFF8E8B1DCF8203000F0A6805B
S31500002A0081FB0224002CC0F2A88012F1804244F11E
S31500002A100004D20F42EA4402002BC3F1000800F37F
S31500002A20C6801F33C0F2CA80012303FA08FE0EF1E6
S31500002A30FF3ED30F03EB6E030EEA020442FA08F2DE
S31500002A409C42C8BF0132039B4FEA6E09002B3DD062
S31500002A50CDE90006059CCDF808C012E013F18043CD
S31500002A6046F10006DB0F43EA46030EEA030609EBCE
S31500002A70D37C43FA08F3B445B8BF0133A2451A44E0
S31500002A8022D054F8043F00985B573B448340994258
S31500002A9012D081FB0336002EE0DA13EB0B0366F14E
S31500002AA00006002E04DA6FF000401B1846F10006FF
S31500002AB0DB0F43EA4603D8E7B1F1004FE9D1CC4634
S31500002AC076466FF00043D4E7DDE9016CDCE90431BA
S31500002AD0934261D082FB0323002B4EDB12F180422E
S31500002AE043F10000D30F43EA40030029C1F100027D
S31500002AF05DDC1F3162DB012101FA02F0013844106E
S31500002B0043FA02F100EA030204EBD3739A42D4BFFC
S31500002B100846481CDCE90B23DCF80C10013501449F
S31500002B208A42B8BF0A469342A8BF134606F8013F39
S31500002B30049BAB4236D9DCE90601DCF80470DCF80C
S31500002B40203007FA00F291427FF45AAFB1F1004FFC
S31500002B507FF456AF6FF000425EE712EB0B0264F1B2
S31500002B60000EBEF1000F04DA6FF0004412194EF1A8
S31500002B70000ED20F42EA4E024EE712EB0B0263F151
S31500002B800000002804DA6FF00043D21840F100007C
S31500002B90D30F43EA4003A8E7B2F1004F9AD16FF092
S31500002BA00043A2E707B0BDE8F08F049210E74FF4A8
S31500002BB0B371074B074A084832F0D8FD40F2671157
S31500002BC0064B044A044832F0D1FD37F0ABFB00BF98
S31500002BD0C4B3030084B20300E0B2030074B203007E
S31500002BE0010000C02DE9F04F0022A3B005460E46B5
S31500002BF011F032FD0746007A012852D0092845D146
S31500002C00D6F8108034686B6CD8F82410002C00F0CD
S31500002C109B80284624689847002C814612DD4FF099
S31500002C20000BA0F1040A5A463146284611F0FAFC78
S31500002C30002800F08F8003680BF1010B5C454AF811
S31500002C40043FF0D1D8E90203D8E90426D8E906C53D
S31500002C50D8F82010CDE90C65CDE90E120990394659
S31500002C600B93CDF840C002A8D8E90032CDE9133263
S31500002C7011F00CFD38684B460090224602A908A8C0
S31500002C80FFF786FE002023B0BDE8F08F6C6931F0B7
S31500002C90DDFF314902462846A047012023B0BDE8A2
S31500002CA0F08F34686B6C3169002C48D02846D4F814
S31500002CB000909847B9F1000F044611DD4FF0000867
S31500002CC0A0F1040A42463146284611F0ABFC002822
S31500002CD040D0036808F10108C1454AF8043FF1D124
S31500002CE04D46394608A811F0D1FC08983F680028DF
S31500002CF02EDD012208AB03EB800053F8041F83424C
S31500002D0001FB02F2F9D11646002ABBD0002004EBE3
S31500002D10850CACF1040CDFED117A8100221F45B160
S31500002D2052F8043F0B4493ED007A944577EE877A88
S31500002D30F6D10130B042E7EC017AECD3A2E728469F
S31500002D40984725460446CCE728469847814679E7C2
S31500002D500126DBE737F0E6FAE4B5030000000000E1
S31500002D6010B504460021034B034A11F033FC2046FC
S31500002D7010BD00BFE52B0000C52600002DE9F04F71
S31500002D80164693B000220D46044611F04BFC012274
S31500002D9029468146204611F045FC29460746002271
S31500002DA0204611F059FC8046387A022815D198F849
S31500002DB00800022811D199F80800012816D0092820
S31500002DC000F0DB80656931F041FFCA4902462046C2
S31500002DD0A847012013B0BDE8F08F656931F036FFD2
S31500002DE0C54902462046A8470120F3E706AD4946F5
S31500002DF0284611F04BFCD9F800303C680CAF414630
S31500002E003846019311F042FCD8F800000699002ECE
S31500002E1000F07481002940F3CC82DDF830E04B1ECF
S31500002E20734540F0C682D4F800C0BCF1000FC0F272
S31500002E30CC828C4580F2BD8212AB03EB8C0353F837
S31500002E402C4C4FEA8C08BCF1000F00F0CD82079E97
S31500002E50BEF1000F00F0AD82012200238A460DF17B
S31500002E601C0907E0534500F0A4829E4559F8046FFB
S31500002E7000F09F8257F8041FB14240F09A82013356
S31500002E80634506FB02F2EDD101335345514680F20C
S31500002E90A88212AE06EB8306E64556F82C6C40F384
S31500002EA0888203F1804909F1010905EB89094FF090
S31500002EB0010C454607E09E451D4659F8046F40F350
S31500002EC078823B46AD0048356D4455F8145CB542F2
S31500002ED040F06F825F1C8F4206FB0CFCEBDB002A86
S31500002EE047DD031F049300230CFB04FB1146E14658
S31500002EF09A4698465A464FEA8C00BCF1000F31DDDF
S31500002F000026A9EB030BCDF80890B146019D4FEAC8
S31500002F108B0B05EB8307049DABF1040B05EB8A0EC7
S31500002F20CDF80C80012CF7EC017A4FF0000611DD8C
S31500002F3001250BEB070898ED007AB4EEE77AF1EE7F
S31500002F4010FAC8BF2E4605F1010577FE277AAC4276
S31500002F508044F0D109F10109E1454EF8046FE1D151
S31500002F60DDE9029808F101088845E24413449144DA
S31500002F70C3DB002013B0BDE8F08F06AD49462846F6
S31500002F8011F084FB3C680CAF41463846D9F80090F6
S31500002F9011F07CFBD8F800000699002E00F05F8146
S31500002FA0002940F306820C9E4B1EB34240F001827C
S31500002FB0D4F800C0BCF1000FC0F2F7818C4580F256
S31500002FC0F88112AB03EB8C0353F82CEC4FEA8C0818
S31500002FD0BCF1000F00F00082079C002E00F0E98192
S31500002FE0012200238B460DF11C0A07E05B4500F029
S31500002FF0E0819E425AF8044F00F0DB8157F8041F27
S31500003000A14240F0D6810133634504FB02F2EDD1C3
S3150000301001335B45594680F2DC8112AC04EB830434
S31500003020B44554F82C4C80F2C48103F1804A0AF16D
S31500003030010A05EB8A0A4FF0010C454607E0B34248
S315000030401D465AF8044F80F2B4813B46AD00483520
S315000030506D4455F8145CA54240F0AB815F1C8F426D
S3150000306004FB0CFCEBDB002A83DD00210CFB0EFAD3
S3150000307009F1FF33A0F1040BA3EB0C0304930392B5
S315000030806346084652465D46CDF81490BCF1000FE3
S3150000309029DD4FF00008049CCDE9010104EB030A89
S315000030A0059C05EB810904EB030BBEF1010F4FF004
S315000030B000071AF9010F0EDD01210BEB080494F944
S315000030C0006064448642C8BF0F4601F10101C8BFD3
S315000030D030467145F3D108F10108E04549F8047F0F
S315000030E0E3D1DDE90101039C0130844261441344CC
S315000030F0CCDC3EE714B6030058B60300002940F3C3
S315000031005881DDF830E04B1E734540F05281D4F80B
S3150000311000C0BCF1000FC0F24E818C4580F249819F
S3150000312012AB03EB8C0353F82C4C4FEA8C08BCF122
S31500003130000F00F06381079EBEF1000F00F0398199
S31500003140012200238A460DF11C0907E0534500F0D1
S3150000315030819E4559F8046F00F02B8157F8041F03
S31500003160B14240F026810133634506FB02F2EDD100
S3150000317001335345514680F23E8112AE06EB83067B
S31500003180E64556F82C6C40F3148103F1804909F1A9
S31500003190010905EB89094FF0010C454607E09E45FC
S315000031A01D4659F8046F40F304813B46AD0048358F
S315000031B06D4455F8145CB54240F0FB805F1C8F42AD
S315000031C006FB0CFCEBDB002A7FF7D3AE031F049350
S315000031D000230CFB04FB0392E1469A4698465A46A6
S315000031E04FEA8C00BCF1000F30DD0026CDF80880D8
S315000031F0B0460199A9EB030B01EB830704994FEA4B
S315000032008B0BABF1040B01EB8A0E012CF7EC017A68
S315000032104FF0000612DD01210BEB070595ED007A54
S31500003220B4EEE77AF1EE10FA48BF0E4601F101015D
S3150000323048BFF0EE477A8C420544EFD108F1010809
S31500003240E0454EF8046FE0D1DDF80880039908F1F7
S3150000325001088845E24413449144C3DB89E600290A
S3150000326040F3A780DDF830C04B1E634540F0A180D7
S31500003270D4F80080B8F1000FC0F2A280884580F231
S31500003280988012AB03EB880353F82C6C4FEA880E38
S31500003290B8F1000F00F0B780079CBCF1000F00F0FA
S315000032A08880012200238B460DF11C0A05E05B4550
S315000032B07FD09C455AF8044F7BD057F8041FA14293
S315000032C077D10133434504FB02F2F0D101335B456C
S315000032D0594680F28E8012AC04EB8304E04554F824
S315000032E02CAC66DA03F1804808F1010805EB880882
S315000032F057460125744606E063451C4658F8047F88
S3150000330057DA7346A40048346C4454F8144CA74268
S315000033104FD103F1010E8E4507FB05F5ECDB002AC4
S315000033207FF727AE002105FB06FAA0F1040B0392F6
S3150000333008462A46544609F1FF335B1B0493CDF831
S315000033401490002D2ADD4FF0000E9446049BCDE923
S31500003350010103EB0209059B0BEB810803EB020A53
S31500003360012E4FF0000219F9011F0EDD01230AEBB1
S315000033700E0090F9007028448F42B8BF1A4603F138
S315000033800103B8BF3946B342F3D10EF1010EAE4583
S3150000339048F8042FE4D1DDE901016246039B0130C0
S315000033A0834229442244CCDCE3E51CEB010C7FF587
S315000033B008AE36F0B7FF1CEB010C7FF5B1AEF8E7AF
S315000033C018EB01087FF55DAFF3E71CEB010CF0D4B9
S315000033D032E54FF0010C46E6012919D001221346C9
S315000033E01BE64FF0010C7AE5012914D001221346A1
S315000033F04FE5012593E74FF0010CE4E601290DD0D6
S3150000340001221346B9E601290BD001231A4662E7C9
S315000034108C460A4629E60A468C4662E58C460A46EA
S31500003420D4E60D460A467DE70022FFF7A7BC00BF9B
S315000034300122FFF7A3BC00BF002210B504461146C7
S31500003440024B11F0C7F8204610BD00BF3134000012
S31500003450002210B504461146024B11F0BBF8204677
S3150000346010BD00BF2934000070B5002204460E4688
S3150000347011F0D8F8B0B1012205463146204611F0C8
S31500003480D1F8024670B1E3689B68986928B12B6849
S31500003490BDE8704019682FF07DB903482EF01CFA7C
S315000034A0012070BD36F03EFF88B603002DE9F041DD
S315000034B00B68044686B013B11B68022B11D0022696
S315000034C0484A6569CDE90123474A204600922723E9
S315000034D0464A47490396A8470124204606B0BDE858
S315000034E0F0814B680E4613B11B68002B50D10022A9
S315000034F03146204611F096F8054600286FD0037A2B
S315000035000E2B0AD0022B08D03A4965693323009165
S315000035102046364A3849A847DEE76B681F68002F01
S3150000352043DD00219E464FF0010C9846084658F8A8
S31500003530042F0130D3170CFB03F302FB0133ACFB62
S3150000354002C1B8421944F2D10CF1FF3C5CEA010C0D
S315000035502BD000210126084665695EF8042F01304C
S31500003560D31706FB03F302FB0133A6FB0261B84245
S315000035701944F2D10127214B214A0391019300926C
S3150000358020463523194A1A4902960497A847A3E705
S3150000359000251C4A4469CDE901231B4A28230092D1
S315000035A01349124A0395A04796E7E76831463B68F8
S315000035B0012238469B699847064680B1BB68296850
S315000035C022469869096833462FF0BAF8044600285F
S315000035D083D13B68314638465B6A98477DE736F0CB
S315000035E0A1FE00BFBC25040030B70300F8B60300F7
S315000035F098B4030040B7030090B3030048CF03001C
S31500003600A8B7030064BC0300B4B4030010B50446B5
S315000036100021034B034A10F0DDFF204610BD00BF1A
S3150000362069340000AD340000F0B50B68044685B07F
S3150000363013B11B68032B0FD03B4A65690326CDE9FE
S31500003640012320462923394A00923949394A0396EB
S31500003650A847012005B0F0BD4B680D46002B31D0C0
S315000036601B68012B2ED1C6680022336830469B6941
S31500003670984707463368294600223046DB693D46AF
S3150000368098470746002D2FD000282DD0AB681B6821
S31500003690022B2CDD82681268022A1CDD042B29DC31
S315000036A0042A2ADC28783B78834229D133682946C4
S315000036B030465B6A98473368304639465B6A9847B6
S315000036C00020C7E71C4A65690126CDE9012320468B
S315000036D02A231A4AB8E73523194965692046009115
S315000036E0144A1849A847B4E732231749F5E73423A3
S315000036F01649F2E736231649EFE737231549ECE773
S31500003700666931F0A3FA0546387831F09FFA074624
S31500003710114B20460193114BCDE902570093054A00
S3150000372038230F49B04794E710B8030030B70300B9
S3150000373098B40300D4B7030048CF0300B4B4030021
S3150000374070B8030090B3030014B803003CB803003C
S31500003750A8B80300DCB8030020B503005CB503007D
S31500003760E8B403002DE9F04F0022C1B00D4604462F
S3150000377010F058FF012229460646204610F052FF57
S31500003780022229468346204610F04CFF29468246EF
S315000037900022204610F060FF96F808808146B8F1B6
S315000037A0010F10D0B8F1090F00F00281404665699B
S315000037B031F04CFA337A02467C492046A84701206C
S315000037C041B0BDE8F08F314616A810F05FFF5946AC
S315000037D01CA8376810F05AFFBBF1000F00F0AE814D
S315000037E0514622A8DBF8005010F050FFBAF1000F46
S315000037F000F0A481494628A8DAF8006010F046FFD8
S31500003800B9F1000F00F09A81169CD9F80030022C0D
S31500003810059340F39381042C00F39081289B9C42EE
S3150000382040F08C81042C40F0B3810DF1580E0DF15F
S31500003830B809BEE80F00A9E80F009EE803000DF1E5
S31500003840A00C0DF1D00889E80300BCE80F00A8E839
S315000038500F009CE8030088E80300349B022B0693C4
S3150000386040F36C81DDE9362A2E9B0892359A032BAC
S315000038700793019240F36281DDE93009329B042C03
S3150000388004932F9B18BF4FF0010B1393336808BFA7
S31500003890D5F804B0159314BF0023B368D5F800C05B
S315000038A01093139B002B40F3D48109FB00F3049A79
S315000038B00CFB0AFE02FB03F39B00149309FB02F3C5
S315000038C09B00039373463E46E64600259C464FEA18
S315000038D08208019A002895FBF2F302FB135202922A
S315000038E040F3BD8193FBFBF70BFB17330F93159B3F
S315000038F0029CFF1A089B314604FB037300220AFB55
S3150000390003F3CDE9115607E0039C01329042774458
S315000039102144634400F0A181002FF5DB089CBC42E2
S31500003920F2DDB9F1000FEFDDDDE90F455646CDE9D1
S315000039300A70C246641B1F4600258846CDF830E053
S3150000394009920D91CDF838C01FE0029B002B40F084
S31500003950F580389B002BC0F2F180E01903FB00F0E4
S31500003960059B03EB8000079B042B40F0E780049B3C
S31500003970002BC0F2E3805246414637F04AF8013543
S31500003980A9455C44D04400F05181002CF7DBB442D9
S31500003990F5DA069B042B40F0D180019B002BD4D096
S315000039A0DDE901329342D4DCC8E000BFD4B30300A2
S315000039B0314616A810F06AFE59461CA8D6F80080B3
S315000039C010F064FEBBF1000F00F0B880514622A84B
S315000039D0DBF8005010F05AFEBAF1000F00F0AE808E
S315000039E0494628A8DAF8006010F050FEB9F1000F39
S315000039F000F0A480169CD9F80030022C049340F302
S31500003A009D80042C00F39A80289B9C4240F096806F
S31500003A10042C40F095800DF1580C0DF1B809BCE866
S31500003A200F00A9E80F009CE8030028AF0DF1D00EA7
S31500003A3089E803000FCFAEE80F0097E803008EE891
S31500003A400300349B022B059378DDDDE9362A2E9B95
S31500003A500792359A032B069301926FDDDDE92F302D
S31500003A60DDE9319712933368042C149316BF0023B3
S31500003A70B3684FF0010B0F93129B08BFD5F804B043
S31500003A80002BD5F800C040F3E48009FB00F307FBE8
S31500003A9003F30CFB0AFE139307FB09F30393734628
S31500003AA04646E64600259C46019A002895FBF2F319
S31500003AB002FB1352029240F3C58093FBFBF80BFB0B
S31500003AC018330E93149B029CA8EB0308079B314600
S31500003AD004FB038300220AFB03F3CDE9105607E03B
S31500003AE0039C01329042F0442144634400F0A880D4
S31500003AF0B8F1000FF4DB079C4445F1DDB9F1000F86
S31500003B00EEDDDDE90E45CDF82080641BD0460025AC
S31500003B10BA461E460F46CDE90912CDE90B0ECDF881
S31500003B2034C0002C71DBA0456FDD059B042B05D14D
S31500003B30019B002B54D1029B002B55D036F0F2FB93
S31500003B4001233D9304230DF1E80CE2463A93179BBB
S31500003B500DF1B8093B93189B299F3C93199B0DF1D6
S31500003B60D00E3E93BCE80F00A9E80F009CE80300C6
S31500003B702A9B3B973C932B9B89E803003E93BAE82C
S31500003B800F00AEE80F009CE803008EE8030058E73C
S31500003B9004230DF1E80CE1463A93179BCDF8F48027
S31500003BA03B93189B0DF1B8083C93199B0DF1D00E71
S31500003BB03E93BCE80F00A8E80F009CE80300299B91
S31500003BC088E803003B932A9B3C932B9B3E93B9E8E2
S31500003BD00F00AEE80F009CE803008EE803003CE609
S31500003BE0DDE901329342A9DD389B002BA6DB049A5E
S31500003BF0A01903FB0020069B042B9FD1BAF1000FEE
S31500003C009CDB5246394636F004FF0135A9455C4433
S31500003C10574486D1DDE90912DDE90B0E57463346D6
S31500003C20C246DDF834C0DDF8208059E7D046DDE92C
S31500003C300B0EDDE90D1C3B46B246099A0A9F63E668
S31500003C40DDE91056139B01351E44129BAB427FF4EF
S31500003C502BAF002041B0BDE8F08FDDE91156149B73
S31500003C6001351E44139BAB427FF433AEF1E700BF30
S31500003C7010B504460021034B034A10F0ABFC204666
S31500003C8010BD00BF65370000293600002DE9F04160
S31500003C900B68044684B013B11B68022B0BD020239B
S31500003CA04749656920460091464A4749A847012089
S31500003CB004B0BDE8F0814E680D4606B33668012EA5
S31500003CC01DD1C76800223B6838469B6998478446E1
S31500003CD03B68324629469B693846664698473B68A4
S31500003CE02946DB69804600223846984733780546E0
S31500003CF0022B12D0042B10D02B233449D1E70127F5
S31500003D00334B344A65692046CDE9013600922123BA
S31500003D102C4A31490397A847C9E798F800209342EF
S31500003D200FD12A78934212D0CDE902322E232B4EA0
S31500003D302B49656920460091224A27490196A847E2
S31500003D40B5E7CDE90232274E2D232549F1E7B368C1
S31500003D501B68012B0DD001261D49234ACDE901130D
S31500003D6020466569312300921B49164A0396A847E7
S31500003D709DE7D8F808201268012A05D0CDE902236C
S31500003D80134E32231949D4E7AB681B68012B05D0C3
S31500003D90CDE902320E4E35231549CAE73B68314656
S31500003DA038465B6A98473B68414638465B6A98479F
S31500003DB03B68384629465B6A9847002078E700BF8B
S31500003DC064F1030014B9030090B303004CB9030077
S31500003DD048CF0300B4B4030098B4030020B5030031
S31500003DE09CB903008CB90300ACB90300C4B9030045
S31500003DF0DCB9030010B504460021034B034A10F05A
S31500003E00E9FB204610BD00BFF93F00008D3C0000D5
S31500003E102DE9F843089F0D46D7F800C01446BCF1BB
S31500003E20000F1E4661DD01213B4607EB8C0753F868
S31500003E30042FBB4202FB01F1F9D100293CDD4B1EE8
S31500003E40099A02EB830200230768002F45DD8446AA
S31500003E504FF0010E00EB87085CF8047FE04507FB96
S31500003E600EFEF9D10EF1FF3EBEEB030E27682BD4F2
S31500003E70002F55F82E9033DDA4464FF0010E04EBCB
S31500003E8087085CF8047FE04507FB0EFEF9D10EF1CA
S31500003E90FF3EBEEB030E11D4B9F1010F56F82E709A
S31500003EA010D0012F01D0B94522D1C2F800900133BC
S31500003EB09942A2F10402C7DCBDE8F883B9F1010F0B
S31500003EC0F3D14F461760F2E7002FC8BF4FF0010944
S31500003ED0D2DC43B937681760E9E74FF0000EC3E755
S31500003EE04FF0000ED5E70127ECE700230121A7E7F5
S31500003EF036F018FA2DE9F04F83B00C9C074625687A
S31500003F008B46002D904601936ADD2346012604EB7D
S31500003F10850153F8042F994202FB06F6F9D1002ECB
S31500003F2051DD731ED7F800900D9AD8F800A0B9F1AC
S31500003F30000F02EBC30507EB890E08EB8A0152DD81
S31500003F4000203B46012253F8044F9E4504FB02F233
S31500003F50F9D1013A121A39D45BF832404FF0000C0D
S31500003F60E2450ADD43464FF0010C53F8042F8B421D
S31500003F7002FB0CFCF9D10CF1FF3CBCEB000C17D496
S31500003F80019B012C53F83C3028D0012B01D0A342D1
S31500003F902FD101302C6086424FEAE4746C60A5F1A3
S31500003FA0080510DDB9F1000FD8BF0124C9DCD5E73B
S31500003FB0012CEED12346002201308642C5E90032AB
S31500003FC0A5F10805EEDC03B0BDE8F08FBAF1000FED
S31500003FD0C8BF0124C6DC48B9019B1B68DA17EBE7AA
S31500003FE0002301269EE700221046B5E701230022A2
S31500003FF0E2E736F097F900BFF0B50022A1B004461B
S315000040000F4610F00FFB012239460646204610F0F7
S3150000401009FB394605460022204610F01DFB037AAF
S315000040200446022B31461CD00EA810F02FFB002EA2
S3150000403033D0294614A8366810F028FB6DB32F68D4
S315000040401AAD2146284610F021FB23680EA8CDE9BB
S31500004050005331463B4614AAFFF74CFF002021B01F
S31500004060F0BD02A810F012FBBEB1294608A83668BA
S3150000407010F00CFB8DB12F681AAD2146284610F0C2
S3150000408005FB236802A8CDE9005331463B4608AA42
S31500004090FFF7BEFE002021B0F0BD36F043F900BFA9
S315000040A02DE9F04F0B6804468BB013B11B68022B49
S315000040B00BD04D236C496569204600916B4A6C49CB
S315000040C0A84701200BB0BDE8F08F4E680D4646B3F9
S315000040D03668012E25D1C76800223B6838469B69A1
S315000040E0984784463B68324629469B693846664669
S315000040F0984784463B6829460022DB693846654670
S315000041009847B36880461A68052A3EDC95F8009001
S31500004110B9F1020F13D0B9F1040F10D05A23554943
S31500004120C9E70127544B554A65692046CDE9013652
S3150000413000924E234D4A52490397A847C1E731786A
S3150000414098F80000814213D1052923D0A968086890
S31500004150012822D00126484B4A4ACDE90130484978
S315000041606569252300922046404A0396A847A8E79A
S31500004170CDE90210444A454E65695C23019220460A
S315000041803A4A3F490096A8479BE72046636940495B
S31500004190984796E760233F498DE7D8F808C04968F5
S315000041A0DCF800A08A4504D0204663693A4998475E
S315000041B087E7524551DCBAF1050FE6DC002AAAEB87
S315000041C0020015DD800003EB820253F8041F01296B
S315000041D00AD0D5F804E0B9F1020F0CBF5EF800E092
S315000041E05EF810E0714538D1934200F10400ECD13D
S315000041F04FEA8A0B5A460CF1040105A836F009FC71
S31500004200BAF1000F18DD002304A9BBF1000F29D075
S31500004210D5F804E002E004335B450DD0B9F1020F96
S3150000422051F8040F0CBF5EF803205EF8132082429B
S31500004230F1D0472319493EE73B68314638465B6A69
S3150000424098473B68294638465B6A98473B68384634
S3150000425041465B6A9847002034E720466369104967
S3150000426098472EE736F05EF864F10300F4B90300D0
S3150000427090B3030088BA030048CF0300B4B4030028
S3150000428098B40300E4BA030020B503005CB503004C
S315000042902CBA0300C4BA0300FCBA0300D4BB030063
S315000042A068BB030010B504460021034B034A10F017
S315000042B091F9204610BD00BF31440000A140000026
S315000042C02DE9F04F87B01D46DDE9109B129B07468E
S315000042D09B451646139C69D0002349F82B3050F8AD
S315000042E02B304FEA8B02002B09EB8B0822DD0BF1FA
S315000042F0010A139454468246CDE904124F46DDF86E
S315000043004C90129B3246CDE9014350462B46049908
S31500004310CDF80C900097FFF7D3FFD8F800300133A3
S31500004320C8F800305AF82B209342EADB4C46B946CF
S315000043305746059A002349F82B3057F82B3006EBE1
S31500004340020856F82B2093422DD0B169D9F80430D3
S31500004350706901FB03F3D9F80010012A00FB013351
S31500004360D9F80810F06900FB0133D9E90371306A06
S3150000437000FB0733706A00FB013304FB0355D8F8D2
S31500004380143003FB04F405EB04030CDD0126184688
S315000043902246294636F03DFB0346D8F80020013672
S315000043A0B2422344F3DC07B0BDE8F08F8269D9F846
S315000043B00430D9F8000002FB03F8B26902FB03F3EC
S315000043C07A6902FB0088726902FB0033D9F808009B
S315000043D0FA6902FB0088F26902FB0033D9E903E0BF
S315000043E03A6A02FB0E887A6A06EB8B0702FB0088A4
S315000043F0326A04FB081802FB0E33726A02FB0033B2
S3150000440056F82B2004FB03537D69002A04FB05F5AF
S31500004410C9DD002418462A46414636F0FAFA034614
S315000044203A680134A2422B44F4DC07B0BDE8F08FB1
S315000044302DE9F0470022B0B00E46054610F0F2F81E
S31500004440002204463146284610F006F90546214664
S3150000445004A810F01BF929460AA8266810F016F9D8
S315000044600523DDF810802D689845277A169300F30A
S31500004470A080D8F105000BD00023012116AA02E086
S31500004480052B00F096800133984242F8041FF7D1BD
S3150000449017AB4FEA8804224603EB800005A90DF10D
S315000044A0840936F0B6FA494601220423DDF858E0BD
S315000044B00DF1700C9E457CDD5CF8040D013B41F866
S315000044C0040D4A6100FB02F2581CF3D10523DDF806
S315000044D028C010939C456CDCB3EB0C000AD000237B
S315000044E0012210A901E0052B63D00133984241F85F
S315000044F0042FF8D111AB4FEA8C0203EB80000BA915
S3150000450036F087FA0DF1AC0E714601220423DDF870
S3150000451040A00DF1580C53454BDA5CF8040D013BF5
S3150000452041F8040D4A6100FB02F2581CF3D14FF02A
S31500004530040A59F8042D5EF8043D9A421DD1BAF1D9
S31500004540010AF6D2B8F1000F30DD4FF0010804ABD6
S315000045501C4453F8042FA34202FB08F8F9D138464D
S315000045602EF0FEFF02463146284602FB08F236F0E0
S3150000457050FA002030B0BDE8F08700243846CDE977
S315000045801644CDE918441A942EF0EAFF074616AAF7
S315000045901CA800922B463146CDE9014A26AA03976C
S315000045A0FFF78EFE002030B0BDE8F0874FF001081F
S315000045B0D5E735F0B7FE00BF002230B5D1E90435A6
S315000045C02D681A711D600B68044683B00BB11B6819
S315000045D06BB94B680BB11B68E3B9E368986803686D
S315000045E0DB6A984785420CDA002003B030BD0B49E0
S315000045F04469332300910A4A0A49A047012003B0BF
S3150000460030BD39230849656920460091044A0549A9
S31500004610A847F3E734230549F5E700BF38BC030094
S3150000462004BC030090B3030068BC030050BC030045
S3150000463010B50C69237943B9C36821689868036883
S315000046405B69984710B901232371002010BD00BF94
S31500004650836B0BB10821184710B535F063FE00BF18
S3150000466010B50446034B044A04490FF0B3FF204635
S3150000467010BD00BF31460000B9450000514600009C
S31500004680F0B50B68044685B013B11B68012B0FD03B
S31500004690234A65690126CDE9012320461D23214AC7
S315000046A000922149214A0396A847012005B0F0BD92
S315000046B04B680D46F3B11B68012B1BD1C66800225F
S315000046C0336830469B6998470746E0B13368294608
S315000046D000223046DB6998470546E8B1336839461B
S315000046E030465B6A98473368304629465B6A984786
S315000046F00020DBE70A4A65690126CDE90123204649
S315000047001E230B4ACCE724230A49656920460091FB
S31500004710064A0949A847C8E727230849F5E700BF1D
S3150000472048CF030030B7030098B40300A4BC0300CD
S31500004730B4B40300A8B3030090B3030028B8030081
S3150000474070B500228CB00E4605460FF06BFF0022B6
S315000047503146044628460FF07FFF05462146684647
S315000047600FF094FF294606A80FF090FF009E069BC7
S315000047709E4240F0A581002ED8BF012217DD6B4670
S31500004780EE4600220DF1180C5CF8040F5EF8041FCB
S31500004790884240F0958101329642F5D101220DEB17
S315000047A0860053F8041F834201FB02F2F9D1207AF6
S315000047B0431E0F2B09D8DFE803F012220808080869
S315000047C04A08320808080808083E30F03FFA227AFC
S315000047D0014699482DF080F800200CB070BD287A6B
S315000047E02168431E082B3ED8DFE813F05D014E0119
S315000047F03D003D003D003D003C013D002A01287A78
S315000048002368411E08292ED8DFE811F00501F800BB
S315000048102D002D002D002D00EB002D00DE00287A46
S315000048202368411E08291ED8DFE801F0BCAE1D1D15
S315000048301D1DA01D9300287A2368411E082912D841
S31500004840DFE801F07669111111115C114F00287A29
S315000048502368411E082906D8DFE801F0332705053D
S3150000486005051B050F0030F0F1F92A7A0146734859
S315000048702DF032F800200CB070BD03EB42029342DB
S315000048802968A9D033F9020B9A4201F8010BF9D134
S31500004890A2E7520029689FD0023B881833F9022FFD
S315000048A021F8022B8842F9D196E703EB42029342A4
S315000048B0296891D033F9020B9A4241F8040BF9D1D9
S315000048C08AE703EB42029342296885D033F9020B4B
S315000048D007EE900AF8EEE77A9342E1EC017AF5D119
S315000048E07AE703EB8202934229683FF475AF53F8E7
S315000048F0040B934201F8010BF9D16DE703EB820239
S31500004900934229683FF468AF53F8040B934221F8A9
S31500004910020BF9D160E7920029683FF45DAF043BD2
S31500004920881853F8042F41F8042B8142F9D153E734
S31500004930920029683FF450AF043B0A44D3ED017A54
S31500004940F8EE677AE1EC017A914203F10403F5D1BE
S3150000495042E72968002A3FF43FAF013B0A4413F9B6
S31500004960010F01F8010B9142F9D135E71A44934240
S3150000497029683FF431AF013B501E13F9012F8342E2
S3150000498021F8022BF9D127E71A44934229683FF40C
S3150000499023AF013B501E13F9012F984241F8042B17
S315000049A0F9D119E71A44934229683FF415AF013B40
S315000049B0013A13F9010F07EE900AF8EEE77A9342EF
S315000049C0E1EC017AF5D107E703EB8202934229680D
S315000049D03FF402AF53F8040B9A4201F8010BF9D1E8
S315000049E0FAE603EB8202934229683FF4F5AE53F8E8
S315000049F0040B934221F8020BF9D1EDE692002968E7
S31500004A003FF4EAAE043B881853F8042F41F8042B10
S31500004A108142F9D1E0E6920029683FF4DDAE043B1D
S31500004A200A44D3ED017AF8EEE77AE1EC017A914295
S31500004A3003F10403F5D1CFE6F8BC0300D4BC0300B0
S31500004A4001EB8202914228683FF4C6AE0B46F3ECB6
S31500004A50017AFDEEE77A17EE901A9A4200F8011BEA
S31500004A60F5D1B9E601EB8202914228683FF4B4AE73
S31500004A700B46F3EC017AFDEEE77A17EE901A9A42AE
S31500004A8020F8021BF5D1A7E6920028683FF4A4AEF1
S31500004A900B460244F3EC017AFDEEE77AE0EC017A8C
S31500004AA09042F7D198E6930028683FF495AE0A46FF
S31500004AB0034452F8041B40F8041B9842F9D18BE6D4
S31500004AC035F030FC10B504460021034B034A0FF0C5
S31500004AD081FD204610BD00BF414700008146000011
S31500004AE02DE9F041C6680446336884B0002230469A
S31500004AF09B690D46984700284CD03368074600222C
S31500004B0029463046DB699847804600284BD02B68FB
S31500004B100BB31B68012B1ED16D68002D2CD02D68A0
S31500004B20012D29D13878012854D198F800000128A0
S31500004B303CD1D8F81830BA6993425BD0CDE902323D
S31500004B40474E484965692C2300912046464A474905
S31500004B500196A8470CE00126454A6569CDE901237F
S31500004B60444A2046009228233F4A40490396A847D4
S31500004B70012004B0BDE8F08101273D4B3E4A66693D
S31500004B802046CDE9013500922923374A3749039754
S31500004B90B047EDE724233949656920460091324A3A
S31500004BA03749A847E4E727233649F5E7666930F031
S31500004BB04DF80546387830F049F8334B07460193EF
S31500004BC0324B204600932B23CDE90257264A304923
S31500004BD0B047CDE7666930F039F8034628461D46EA
S31500004BE030F034F82B4B07460193274B20460093B1
S31500004BF02A23E9E7D8F80810BA68D1F800C0136884
S31500004C009C451BD1BCF1000FC8BF002302DC1BE092
S31500004C109C4519D051F8040F52F8045F0133A8429D
S31500004C20F6D02F23CDE902051B4A1C4965692046AB
S31500004C30019200910C4A0D49A84799E7CDE902C3B4
S31500004C40174A2D231749F1E73368394630465B6A20
S31500004C5098473368304641465B6A9847002088E7A4
S31500004C604CBD03005CBD03001CBD030098B40300EB
S31500004C7048CF030030B70300B4B40300A8B3030061
S31500004C8090B3030028B803005CB5030020B5030009
S31500004C90E8B4030014C8030094BD0300ACBD0300D0
S31500004CA06CBD030080BD0300F0B500228DB0054643
S31500004CB00E460FF0B7FC31460446002228460FF098
S31500004CC0CBFC2146054668460FF0E0FCACB329460E
S31500004CD006A824680FF0DAFC7DB3009F069B2868BF
S31500004CE09F422AD1002F26DD6A46EC46002306A9FC
S31500004CF051F8046F5CF8045FAE421ED101339F4247
S31500004D00F6D101230DEB870552F8041FAA4201FBD9
S31500004D1003F3F9D1002B0BDDA44601460022FCEC7F
S31500004D20017AFAFE677A01329A42E1EC017AF6DB01
S31500004D3000200DB0F0BD0123EEE735F0F3FA00BF19
S31500004D4010B504460021034B034A0FF043FC2046EE
S31500004D5010BD00BFA94C0000E14A000070B5836B8E
S31500004D6084B0CBB10D46082116469847044605B1D6
S31500004D7026B900232046636004B070BD324629463A
S31500004D8001A82AF0EFFF054B01A819682BF024F8BB
S31500004D906060204604B070BD35F0C4FAACBE0300B6
S31500004DA0F8B51F4B0E461A6804460FF03BFC1D4B28
S31500004DB0314605461A6820460FF04EFC366966B342
S31500004DC042680346D2E90217287A1269092817D1E0
S31500004DD002FB07F74C1E07FB04F41B682246D91991
S31500004DE018462D6835F043FD3A462946204435F0ED
S31500004DF010FE30680138306060B973683360F8BD02
S31500004E0066692FF023FF2B7A024607492046B047F2
S31500004E100120F8BD054B1878F8BD35F083FA00BFC0
S31500004E20B4BE0300B0BE0300D4B30300AABE0300A1
S31500004E3008B50D48D0E8AF3FDB0701D50B4808BDE4
S31500004E4031F0BFF90028F9D0094B0A4A0A49074848
S31500004E500FF0C0FB044831F0C3F9044808BD02480E
S31500004E6031F0BBF930F062FECC000020D00000200B
S31500004E70A14D00007D4E00005D4D00002DE9F04182
S31500004E80C56800222B6886B09B69044628460E46F4
S31500004E9098472B680022074631462846DB69984723
S31500004EA03269002A00F0BC80002F37D00346002864
S31500004EB03DD0D0F808E0B968DEF804C0486860451F
S31500004EC00FD03823CDE9020C564A5749656920466A
S31500004ED001920091554A5649A847012006B0BDE8FF
S31500004EE0F081886801280BD1D1F80CC0DEF80C00DF
S31500004EF084451FD03A23CDE902C04E4A4E49E5E724
S31500004F0001264E4B4E4A0390019365693923009260
S31500004F102046464A46490296A847DEE736234949CF
S31500004F20656920460091414A4749A847D5E7372396
S31500004F304649F5E7D1F810C0DEF8101061451BD1DF
S31500004F4097F8008093F800C0C44522D1BCF1090F40
S31500004F5036D15468002C43DD146032612A68394624
S31500004F602846526A05939047059B2A6819462846A3
S31500004F70536A98470020B1E7CDE9021C344A354E02
S31500004F8065693B2301922046284A29490096A8478D
S31500004F90A3E74046059366692FF058FE059B054634
S31500004FA018782FF053FE2C4B074601932B4B2046C7
S31500004FB000933D23CDE902571C4A2949B0478CE7A7
S31500004FC0604666692FF042FE054609202FF03EFE38
S31500004FD0244B07460193214B204600934023E9E7E3
S31500004FE0DFF884C0DEF808E0DCF800402EF00808A0
S31500004FF00134B8F1050FCCF800400BD0BEF1190F03
S3150000500008D0052C02D002245460A5E70228FAD164
S315000050106029F8D1012400215460CCF800109BE7E8
S3150000502035F080F904BE03001CBE0300C4BD0300B6
S3150000503098B403004CBE030064BE030034BE0300F4
S3150000504048CF0300A8B3030090B3030028B80300B9
S315000050507CBE030094BE030020B503005CB50300CC
S31500005060E8B4030074C40300F4000020836B0BB1A2
S315000050702021184710B535F055F900BF2DE9F0434A
S31500005080D1F8108087B0B8F1000F5ED0C46807462B
S315000050902368002220469B690E4698470546C0B104
S315000050A023683146012220469B6998470646E8B1A7
S315000050B02B78092B1ED02368294620465B6A984721
S315000050C02368204631465B6A9847002007B0BDE852
S315000050D0F08340F223231E4938467C691D4A00911D
S315000050E01D49A047012007B0BDE8F08340F2262302
S315000050F01A49F1E72B69C3F100090369E8685F42C1
S3150000510033F01CFC41EC100B03A902A82DF0D4FED1
S31500005110F06833F013FC41EC100B05A904A82DF040
S31500005120CBFE049B029AC8F81430059BC8F80820E9
S31500005130C8F818300823039AC8F80490C8F8107005
S31500005140C8F80C20C8F80030B5E735F0EBF800BF1A
S3150000515024B40300B8BE030090B3030038B40300C0
S315000051602DE9F0478E4609689CB0042900F3B78004
S3150000517017689046042F00F3B2801E681D46042E61
S3150000518000F3AD8004230446581A00930ED04FF066
S31500005190000C01226B4603E0BCF1040F00F09F8077
S315000051A00CF1010C604543F8042FF5D101AB8A00E0
S315000051B003EB80000EF1040135F02BFC0423D81B11
S315000051C006930CD0002101230DF1180C02E00429EE
S315000051D000F08580013188424CF8043FF7D107ABD7
S315000051E0BA0008F1040103EB800035F012FC01213E
S315000051F00323009F0DF1140C10AABB426FDA5CF872
S31500005200040D013B42F8040D116100FB01F1581C2D
S31500005210F3D101210323DDF818E00DF12C0C18AAB7
S3150000522073455CDA5CF8040D013B42F8040D11612C
S3150000523000FB01F1581CF3D10022E84692460DF11D
S31500005240300C14A90DF11809974248D0964558F824
S31500005250043F44D059F8040F984206D0012B39D0A8
S3150000526001283CD10B60C1F810A00132042A0CF1D0
S31500005270040C01F10401E7D1D6F1040322600AD03F
S3150000528021460022012001E0042A28D0013293425F
S3150000529041F8040FF8D1201DB200291D00EB830050
S315000052A035F0B7FB04F118070DF1300CBCE80F0020
S315000052B00FC79CE80F0014AE04F1380587E80F000D
S315000052C00FCE0FC596E80F0085E80F0020461CB0EC
S315000052D0BDE8F087CCF80000CCF810A0C5E735F0A3
S315000052E021F800BF10B50446034B044A04490FF0E9
S315000052F071F9204610BD00BFE95600007D50000040
S315000053006D50000010B50446034B044A04490FF0E3
S3150000531061F9204610BD00BF796600007D5000008F
S315000053206D50000010B50446034B044A04490FF0C3
S3150000533051F9204610BD00BFF97500007D500000F0
S315000053406D50000010B50446034B044A04490FF0A3
S3150000535041F9204610BD00BF5D8300007D5000006E
S315000053606D50000010B50446034B044A04490FF083
S3150000537031F9204610BD00BFC19000007D500000ED
S315000053806D50000010B50446034B044A04490FF063
S3150000539021F9204610BD00BF259E00007D5000006B
S315000053A06D5000002DE9F04F1E4692460446C5B0EA
S315000053B032464F9B2EA8CDF86CA0FFF7D1FED4E95C
S315000053C00023D4E905862E990493A3680029019346
S315000053D00391D4E903300E96059040F378810020BE
S315000053E05F42319C30991097329F1A94219104FBA9
S315000053F001F107FB04F401252494349C7642DDF880
S3150000540040910F96029707FB01F60A942F9F359C51
S31500005410BE460B94CA46369C81460C94379C59422C
S315000054200D94399CCE4523943A9C84461D943B9C0E
S3150000543014943C9C06943D9C07943E9C08943F9C87
S315000054400994419CCDE925232294429C2D961C94D7
S31500005450439C1394409C2B94389C2C9405FA01F49D
S315000054600F9904F1FF3405FA01F101F1FF311194AE
S31500005470159144FA05F441FA05F11294169140F398
S315000054801C81039B012B00F022810027219A614693
S31500005490BA42CDF89CE0CDF8A0C003465446CDE90B
S315000054A029A0DDF898E0DDF894C040F3F780039A70
S315000054B0022A00F00C8100251A46CDE91E341A9BFB
S315000054C08A46AB42A346209140F3DA80039B032B26
S315000054D000F0FD804E9B0BF1FF3603EB0A041B9B8D
S315000054E00021CDE9172A9818CDF864B000964AE055
S315000054F013F180434AF1000ADB0F43EA4A03BEF187
